:020000042001D9
:100000009711FF5F938181289702000093828201FC
:100010007390523093021000638402007350107C7E
:100020009702000093828215739052301701FFDF10
:10003000130141FD63140100138181EB732540F12D
:10004000814213030040137101FF6385A2001A91DE
:100050008502D5BF970000009380A0046383000051
:100060008290732540F181450146392A9700FFDFD0
:10007000938040F96383000082909702000093828E
:10008000C2007390523003230000F5BF000000004F
:100090008280232003001103E34D73FE82800684D7
:1000A0009702FFDF938202F66385020C9702FFDF5F
:1000B000938242F5F32740F1A14673B00630639670
:1000C000570A1703FFE71303E3F39723FFE793832D
:1000D00063F3630E7300753F1703FFDF130383F2AF
:1000E0009703FFDF938303F2630373005D37170306
:1000F000FF5F130323F19743FF5F9383A3F0630331
:100100007300413F1703FFDF1303C3EF9703FFDFC4
:10011000938343EF63037300AD3F1703FFDF1303C4
:1001200063EE9703FFDF9383E3ED6303730095377B
:100130001703FFDF130303ED9703FFDF938383ECC4
:1001400063037300B9371703FFDF1303A3EB9703B0
:10015000FFDF938323EB63037300253F3707000220
:1001600085471CC30F00300129A0370700021C433C
:10017000EDDFA28082800000F3222034732310344C
:10018000F3233034D5BF828006849711FF5F9381BB
:10019000E10F930200006317550A97520000938203
:1001A000E21B1703FF5F1303E3E59713FF5F9383DE
:1001B0006393638C6200635A730003A5020091028B
:1001C0002320A3001103E34A73FE971200009382D9
:1001D000E2EA1703FFE71303E3E29703FFE79383E2
:1001E00063E2638C6200635A730003A5020091020C
:1001F0002320A3001103E34A73FE0F10000017131E
:10020000FF5F1303238E938341AB63577300232057
:1002100003001103E34D73FE1712FF5F1302828C7C
:1002200011C20296173500001305856BEF30E067A9
:10023000EF30406E175500001305050FEF30E066F4
:10024000EF50200E8937FD5673B0463073B04634F8
:10025000F3271030372704007D8F09C773B036307D
:1002600073B02630370704007D8F19C373B00618AA
:100270003707010013078702F98F89CBF327003076
:100280000967D98F7390073073503000F32710300F
:1002900037072000F98F99C7F327003093E707202D
:1002A00073900730054597150000938525C41716F0
:1002B00000001306E6C33120EF30C05FA2808280C9
:1002C0008280411106C2F32240F1130300006385CE
:1002D000620073005010F5BFEF00905A9240410148
:0202E00082801A
:0802E800FC020120F0020120DC
:1002F00037050080130505036F205008B725F4006B
:100300003705008093850540130505036F30004BCA
:10031000E4380E4000001B4354686520696E707518
:10032000743A20256420616E6420746865206F75BE
:10033000747075743A2025750A00000043616C6979
:100340006272617465204D6F746F722E0A00000036
:10035000536574757020636F6D706C657465642E81
:100360000A000000426567696E20746865206D614F
:10037000696E206C6F6F702E0A000000436F6E6E06
:10038000656374696F6E20556E737563636573730F
:1003900066756C0A00000000436F6E6E65637469D9
:1003A0006F6E205375636365737366756C0A000026
:1003B000726573657474696E6720504341393638CD
:1003C0003520636F6E74726F6C20310A000000007C
:1003D0005265616420737563636573733A202564A5
:1003E00020616E6420636F6E74726F6C2076616C36
:1003F00075652069733A2025640A0000736C656591
:10040000702073657474696E672069732025640AAF
:10041000000000006F6E2073657474696E67206958
:10042000732025640A00000053657474696E6720A8
:1004300074686520636F6E74726F6C207265676993
:10044000737465720A0000005365742072656769F1
:10045000737465722069732025640A0020150120D9
:10046000FA140120E2140120000000000000000046
:10047000281701204617012012160120DE14012042
:10048000C4150120761501200000000000000000C6
:10049000000000000000000000000000000000005C
:1004A0000000000000000000A0160120B21401208E
:1004B000000000000000000000000000000000003C
:1004C00002190120141901203A190120741A01207F
:1004D000701901207A190120621B01207E19012068
:1004E00082190120B6190120EA1901201E1A0120E3
:1004F000321B0120381A01204A1A0120501A01200B
:10050000581A0120D41A01206C1B0120EC24012070
:1005100000000000000000000000000000000000DB
:100520002425012000000000682601206C260120FF
:1005300000000000000000000000000000000000BB
:1005400000000000000000000000000000000000AB
:10055000FE18012000000000000000000000000064
:100560000000000000000000EA2801200000000058
:10057000000000000000000000000000000000007B
:1005800000000000BE26012000000000BA29012062
:10059000FA29012000000000000000008628012048
:1005A000002801209626012070260120000000006E
:1005B0000000000000000000000000003A2A0120B6
:1005C0009A2A01201C2801209E2801207C2B012032
:1005D000CC2B01208A2C012001000000200000000B
:1005E000001BB70000366E01010000001F00000074
:1005F000030000003F000000010000002000000098
:1006000000366E01006CDC02030000001F000000D9
:10061000020000003F000000010000001000000088
:10062000808D5B00001BB700000000001F00000071
:10063000030000003F000000010000001000000067
:10064000001BB70000366E01010000001F00000013
:10065000020000003F000000010000001000000048
:1006600000366E01006CDC02030000001F00000079
:10067000020000001F000000010000000800000050
:10068000808D5B00001BB700000000001F00000011
:10069000030000001F00000001000000080000002F
:1006A000001BB70000366E01010000001F000000B3
:1006B000020000001F000000010000000800000010
:1006C00000366E01006CDC02030000001F00000019
:1006D000020000000F000000010000000400000004
:1006E000808D5B00001BB700000000001F000000B1
:1006F000030000000F0000000100000004000000E3
:10070000001BB70000366E01010000001F00000052
:10071000020000000F0000000100000004000000C3
:1007200000366E01006CDC02030000001F000000B8
:1007300002000000070000000100000002000000AD
:10074000808D5B00001BB700000000001F00000050
:10075000020000000F000000010000000200000085
:10076000001BB70000366E01010000001F000000F2
:10077000010000000F000000010000000200000066
:1007800000366E01006CDC02030000001F00000058
:10079000010000000700000002000000010000004E
:1007A000808D5B00001BB700000000001F000000F0
:1007B000010000000700000002000000010000002E
:1007C000001BB70000366E01010000001F00000092
:1007D0000100000003000000020000000100000012
:1007E00000366E01006CDC02030000001F000000F8
:1007F00003000000FFFFFFFF0400000001000000F5
:10080000808D5B00001BB700000000001F0000008F
:1008100003000000000000000400000001000000D0
:10082000001BB70000366E01010000001F00000031
:1008300003000000FFFFFFFF0400000001000000B4
:1008400000366E01006CDC02030000001F00000097
:1008500002000000FFFFFFFF060000000100000093
:10086000808D5B00AAC2A2000000000023000000EF
:10087000010000000200000006000000010000006E
:10088000AAC2A200001BB700000000001700000071
:1008900003000000FFFFFFFF060000000100000052
:1008A000001BB7000024F400010000002F0000002E
:1008B00003000000FFFFFFFF060000000100000032
:1008C0000024F40080A812010100000017000000BD
:1008D00002000000FFFFFFFF060000000100000013
:1008E00080A8120155854501020000002300000088
:1008F00002000000FFFFFFFF0800000001000000F1
:10090000808D5B00001BB700000000001F0000008E
:1009100003000000FFFFFFFF0800000001000000CF
:10092000001BB70000366E01010000001F00000030
:1009300002000000FFFFFFFF0800000001000000B0
:1009400000366E01006CDC02030000001F00000096
:1009500001000000FFFFFFFF0A000000010000008F
:10096000808D5B00007C92000000000027000000EA
:1009700003000000FFFFFFFF0A000000010000006D
:10098000007C9200001BB700000000001300000074
:1009900002000000FFFFFFFF0A000000010000004E
:1009A000001BB70000F82401010000002700000030
:1009B00002000000FFFFFFFF0A000000010000002E
:1009C00000F8240100366E01010000001300000051
:1009D00001000000FFFFFFFF0A000000010000000F
:1009E00000366E0100F049020300000027000000FD
:1009F00001000000FFFFFFFF0C00000001000000ED
:100A0000808D5B0000127A00000000002F000000C3
:100A100003000000FFFFFFFF0C00000001000000CA
:100A200000127A00001BB700000000001700000051
:100A300002000000FFFFFFFF0C00000001000000AB
:100A4000001BB7000024F400010000002F0000008C
:100A500002000000FFFFFFFF0C000000010000008B
:100A60000024F40000366E010100000017000000B1
:100A700001000000FFFFFFFF0C000000010000006C
:100A800000366E0180C3C901030000002F00000082
:100A900001000000FFFFFFFF0C000000010000004C
:100AA00080C3C9010048E801030000002F000000D6
:100AB00001000000FFFFFFFF0E000000010000002A
:100AC000808D5B00B6A168000000000037000000C8
:100AD00003000000FFFFFFFF0E0000000100000008
:100AE000B7A16800001BB700000000001B00000059
:100AF00002000000FFFFFFFF0E00000001000000E9
:100B0000001BB7006D43D10001000000370000005A
:100B100002000000FFFFFFFF0E00000001000000C8
:100B20006E43D10000366E01010000001B00000082
:100B300001000000FFFFFFFF0E00000001000000A9
:100B400000366E01DB86A2010300000037000000C2
:100B500001000000FFFFFFFF100000000100000087
:100B6000808D5B00001BB700000000001F0000002C
:100B700002000000FFFFFFFF100000000100000066
:100B8000001BB70000366E01010000001F000000CE
:100B900001000000FFFFFFFF120000000100000045
:100BA000808D5B00AAC2A2000000000023000000AC
:100BB00002000000FFFFFFFF120000000100000024
:100BC000ABC2A200001BB700000000001100000033
:100BD00001000000FFFFFFFF120000000100000005
:100BE000001BB700558545010100000023000000EF
:100BF00001000000FFFFFFFF1400000001000000E3
:100C0000808D5B00007C9200000000002700000047
:100C100002000000FFFFFFFF1400000001000000C1
:100C2000007C9200001BB7000000000013000000D1
:100C300001000000FFFFFFFF1400000001000000A2
:100C4000001BB70000F8240101000000270000008D
:100C500001000000FFFFFFFF160000000100000080
:100C6000808D5B00E82A8500000000002B0000005A
:100C700002000000FFFFFFFF16000000010000005F
:100C8000E92A8500001BB7000000000015000000E5
:100C900001000000FFFFFFFF160000000100000040
:100CA000001BB700D1550A01010000002B00000015
:100CB00001000000FFFFFFFF18000000010000001E
:100CC000808D5B0000127A00000000002F00000001
:100CD00002000000FFFFFFFF1800000001000000FD
:100CE00000127A00001BB70000000000170000008F
:100CF00001000000FFFFFFFF1800000001000000DE
:100D0000001BB7000024F400010000002F000000C9
:100D100001000000FFFFFFFF1A00000001000000BB
:100D2000808D5B0027AE70000000000033000000E3
:100D300002000000FFFFFFFF1A000000010000009A
:100D400028AE7000001BB700000000001900000072
:100D500001000000FFFFFFFF1A000000010000007B
:100D6000001BB7006658E1000100000033000000DE
:100D700001000000FFFFFFFF1C0000000100000059
:100D8000808D5B00B6A16800000000003700000005
:100D900002000000FFFFFFFF1C0000000100000038
:100DA000B7A16800001BB700000000001B00000096
:100DB00001000000FFFFFFFF1C0000000100000019
:100DC000001BB7006D43D100010000003700000098
:100DD00001000000FFFFFFFF1E00000001000000F7
:100DE000808D5B0000A86100000000003B00000057
:100DF00002000000FFFFFFFF1E00000001000000D6
:100E000000A86100001BB700000000001D000000EA
:100E100001000000FFFFFFFF1E00000001000000B6
:100E2000001BB7000050C300010000003B000000A1
:100E300001000000FFFFFFFF200000000100000094
:100E4000808D5B00001BB700000000001F00000049
:100E500001000000FFFFFFFFA22F0120C02F012093
:100E6000D02F0120CA2F0120F22F0120D82F0120DE
:100E7000EC2F0120E02F01201E3001202E30012018
:100E80002830012050300120363001204A30012026
:100E90003E300120802E0120682E01209C2E012052
:100EA000B02E0120C42E0120E02E0120F82E0120BA
:100EB000102F01202C2F0120442F0120622F012010
:100EC0007E2F0120F82F0120583001206E300120A4
:100ED000043501203E3401207E33012046320120BA
:100EE000A831012050350120F00E01200000000043
:100EF0006C6962676C6F737300000000232D302BE8
:100F000020000000686C4C0065666745464700009D
:100F1000303132333435363738394142434445462F
:100F200000000000303132333435363738396162F1
:100F300063646566000000007841000078410000AD
:100F4000904100007441000074410000D64100004F
:100F50009041000074410000D6410000744100003F
:100F60009041000072410000724100007241000097
:100F7000D641000000010202030303030404040439
:100F80000404040405050505050505050505050515
:100F900005050505060606060606060606060606F5
:100FA00006060606060606060606060606060606E1
:100FB00006060606070707070707070707070707C5
:100FC00007070707070707070707070707070707B1
:100FD00007070707070707070707070707070707A1
:100FE0000707070707070707070707070707070791
:100FF0000707070708080808080808080808080875
:101000000808080808080808080808080808080860
:101010000808080808080808080808080808080850
:101020000808080808080808080808080808080840
:101030000808080808080808080808080808080830
:101040000808080808080808080808080808080820
:101050000808080808080808080808080808080810
:101060000808080808080808080808080808080800
:08107000080808080000000058
:10108000411106C622C4652A1305007DAD20B705AF
:1010900001209385C5331385818FEF2090129385AE
:1010A000818F0145F5287D261305007DA920014586
:1010B0005920B7050120938505351385818FEF20D1
:1010C00050109385818F0145E128B7050120938554
:1010D00045361385818FEF20D00E9385818F014592
:1010E000C12023A401AA3E840145592875DD03A52A
:1010F00081AA3D26D5BFB7C7000203A887FF3E05DA
:1011000083A8C7FF9307803E3345F502B7C50002A9
:101110009357F541B306050133B5A600C6973E9532
:1011200003A785FF83A7C5FFE3ECA7FE6314F500C3
:10113000E368D7FE8280B737011042051387870026
:101140002A97144393E6160014C31387C7002A97FF
:10115000144393E6160014C3138707012A97144318
:10116000E1073E9593E6360014C39307B0081CC10F
:10117000372701101C5FB7068400D58F1CDF8280E3
:10118000B7370110D10742053E95084182804205DC
:10119000B73701103E951C41E3CF07FE0CC182809A
:1011A000411122C426C24AC006C6AA842E842949F7
:1011B00083450400639A2501B5452685C93FA945A5
:1011C0002685F1370504EDB7E5FDB240224492448F
:1011D000024941018280011106CE22CC26CA1307A2
:1011E000D5029307A005014663E3E7002A861305AD
:1011F000D60232C6EF30907AB707012083A50731B7
:10120000EF301052B707012083A54731EF3090200F
:10121000EF30D0723246B70501202A84AA86938522
:1012200085311385818FEF2080759385818F0145EE
:10123000853F2285F2406244D244056182800111DB
:1012400022CC52C4B705012006CE9387C1A926CA75
:1012500056C2130700F84AC84EC601469385854515
:101260001385818F23800700A380E700EF20207182
:101270009385818F01452D370145252423A6A1AAF9
:10128000938AC1A963190518B70501209385C5374D
:101290001385818FEF20E0729385818F0145093797
:1012A00003A5C1AAE16505469385056AD12A03A570
:1012B000C1AA9386C1A90147094693050004E92202
:1012C000130540060D3DB70501209385053B1385A9
:1012D000818FEF20006F9385818F0145D13503A564
:1012E000C1AA8547138741AA1386C1A985469305DC
:1012F000000423800A00692A83C60A00B70501207A
:101300003336A0009385053D1385818FEF2020673C
:101310009385818F0145693503C941AAB70501202D
:101320009385C53F1379F906136909014A86138528
:10133000818FEF20C0649385818F0145953503A58A
:10134000C1AA9386C1A90147094693050004A38059
:101350002A0123800A000D2A03A5C1AAF957938602
:10136000C1A901472380FA00094693079007930516
:101370000004A380FA00092AB7050120930710FA98
:101380001306100A938545411385818FA380FA00C7
:1013900023800A00EF20A05E9385818F01450935E7
:1013A00003A5C1AA9386C1A9014709469305000474
:1013B000E128130540068133B70501209385854256
:1013C0001385818FEF20E05F9385818F0145C93BB5
:1013D00003A5C1AA138741AA1386C1A985478546DB
:1013E0009305000423800A00652003C641AAB705BF
:1013F0000120938585441385818FEF204058938584
:10140000818F6244F240D2444249B249224A924A10
:101410000145056171B3B7050120938585398DBDFF
:10142000411106C64D3B9387C1A903C7470083C737
:1014300037008D46A9452380A70021812300A700FE
:10144000B24003A5C1AA1387C1A991471386C1A9B8
:1014500041013DA89387C1A903C7470083C737004F
:10146000E1462380D70085472300F70003A5C1AAE2
:101470001387C1A991478D461386C1A9994509A82B
:101480001C4103A3070002831C4103A347000283FE
:10149000032805000323C80002831C4103A347015E
:1014A000028311E5B717008003A587A88280014554
:1014B0008280B71700809387C7A83707000263832D
:1014C000A70001478E05BA95116793074700AE97AD
:1014D0007D5588C3BA9590C194C3014582807D55DE
:1014E00082806F00D07E411106C6732540F1EF2047
:1014F0002031B24041016F202030011106CE2EC6AE
:10150000DD3719C9B24505476368B7001C41F24091
:1015100003A3470005610283F2407D550561828087
:101520000111B71700804AC806CE22CC26CA4EC683
:101530009387C7A801496313F5000949444181E82D
:101540002A84B7090080639B240185475CC0F24070
:101550006244D2444249B249056182808D4591C0BE
:101560009D4583A78905A2860146DC4F1385890521
:1015700085048297C9BFA9C5011122CC2EC606CE0B
:101580002A849537B71700809387C7A8B24563149C
:10159000F402B707008093878705631EF50093F771
:1015A000B5FF8D466399D7001C416244F24003A306
:1015B000870205610283F24062447D5505618280A5
:1015C0007D558280A9C5011122CC2EC606CE2A8463
:1015D000193FB71700809387C7A8B2456314F40278
:1015E000B707008093878705631EF50093F7B5FF63
:1015F0008D466399D7001C416244F24003A3470221
:1016000005610283F24062447D55056182807D550B
:10161000828001112EC632C436C206CE22CC26CA22
:10162000AA84EF00D06A2A847D3DB7170080938793
:10163000C7A892462246B2456395F400854763F8F1
:101640008700F2406244D2447D5505618280B7072D
:101650000080938787052A87E315F5FE93F7B5FF8A
:101660000D48E39007FF1C436244F240D24403A3B9
:10167000C70105610283371700801307C7A8B707A2
:1016800000026303A7008147B1661387C6FFE11616
:101690003E97B697144388430C43E39DD5FE828062
:1016A000B71700809387C7A801476314F500370771
:1016B000000289476386F50463C8B70085476382E3
:1016C000F502FD573E8582808D476384F50491477E
:1016D000E399F5FE81477DD61C428A07BA979C4361
:1016E000D5B7FD5765D2411122C406C63284613791
:1016F00008C04CC0B240224481473E8541018280EF
:10170000FD5769D21C428A07BA9723A00700814778
:1017100055BFFD5745DA1C428A07BA97054798C35B
:101720000F0080049C43E5B7011106CE22CC2A8429
:10173000EF20C00D2AC67000228589459537F240FA
:10174000624405618280011106CE22CC2A84EF20FA
:10175000E00B2AC6700022858D459937F24062441D
:1017600005618280AA85F32740F1139727009387AC
:10177000C181BA978843F32720341DC537170080ED
:1017800093F7F73F130747A99387870E631BE5007D
:10179000370700808A0713078705BA9703A3070056
:1017A00002838A079C4302908280828000000000AE
:1017B0000000000000000000000000000000000029
:1017C0000000000000000000000000000000000019
:1017D0000000000000000000000000000000000009
:1017E00000000000000000000000000000000000F9
:1017F00000000000000000000000000000000000E9
:10180000397106DE16DC1ADA1ED82AD62ED432D268
:1018100036D03ACE3ECC42CA46C872C676C47AC2E8
:101820007EC0F32740F1139727009387C181BA97B1
:10183000944373262034F3271034F327303473276E
:1018400050309DC6B7170080938747A96385F6047B
:1018500081471375F63F635D060693060008631122
:10186000D50403A7073983A5873913050008029714
:10187000F250E2525253C2533255A255125682567A
:101880007247E2475248C248324EA24E124F824F30
:10189000216173002030B70700809387870555BF0B
:1018A000AD4663D5A6001377F70311EB6147330705
:1018B000E502BA9703A7070983A587094DBF8946A3
:1018C000E318D7FA73277030184383A5C70D45B7BF
:1018D0001307850E0A07BA979C43AA853685829717
:1018E00041BF0000000000000000000000000000F8
:1018F00000000000000000000000000000000145A2
:101900008280F32500B8732500B0F32700B8E39A6E
:10191000F5FE828005C1B7170080938747A963064B
:10192000F50001459355F54182803725F4001305F4
:101930000540CDBF014581458280011181470148A5
:101940003EC4B717008006CE42C6938747A9639C62
:10195000A700B707008003A5471911C51C41300037
:101960008545FC478297F2402245B2450561828059
:10197000371500801305C5A882801D4582800D455E
:1019800082800111B717008006CE2EC6938747A923
:101990006391A702B707008083A747137D5599C7B6
:1019A000984370008D4578473E850297F240056167
:1019B00082807D55E5BF0111B717008006CE2EC687
:1019C000938747A96391A702B707008083A74713AE
:1019D0007D5599C798437000894578473E850297A1
:1019E000F240056182807D55E5BF0111B717008087
:1019F00006CE2EC6938747A96391A702B70700803A
:101A000083A74713014599C79843700091457847CC
:101A10003E850297F240056182800145E5BFB71718
:101A20000080938747A96384A7000145828037051A
:101A3000008013058505828083D705000D47114579
:101A40008D8B6383E7000945828073251034828083
:101A50007390153401458280014582804111130540
:101A6000400606C6EF10F03A41111305800C06C679
:101A7000EF10303AB7170080938747A9B2862E86B9
:101A8000639CA700B707008003A5471911C51C4137
:101A9000814503A3070502837D558280411106C657
:101AA00022C4F32740F101446348F0001397270054
:101AB0009387C181BA978043228541359307A5005A
:101AC00033B5A7003306B50022852244B240BE8557
:101AD00041014DB75C41A9EF93070509130705398B
:101AE00023A0070023A2070023A40700E107E3992E
:101AF000E7FE372701209307053A9306053D1307B4
:101B0000C7A598C39107E39EF6FE73275030B70729
:101B1000012093878717631BF700F3275030B727FF
:101B2000012093870780F19B7390573085475CC1F4
:101B30008280B7170080938747A96392A702AD47B9
:101B40007D5563CFB70009CEB70700809385850E1A
:101B5000938787058A05BE9590C1014582807D5592
:101B60008280371500801305C5A8828081EDF32798
:101B70005030B727012093870780F19B739057302F
:101B80000145828085477D55E39DF5FEF327503062
:101B9000B73701209387077093E71700C5B7732500
:101BA00040F1828039712AD61305C01206DE16DC98
:101BB0001ADA1ED82ED432D236D03ACE3ECC42CA11
:101BC00046C872C676C47AC27EC0EF1090243971BE
:101BD00006DE16DC1ADA1ED82AD62ED432D236D039
:101BE0003ACE3ECC42CA46C872C676C47AC27EC0DD
:101BF000F32740F1139727009387C181BA97984341
:101C00000DC3B7170080938747A9631FF702B70773
:101C100000809387870503A7870D83A5070E0D45D1
:101C20000297F250E2525253C2533255A255125605
:101C300082567247E2475248C248324EA24E124F75
:101C4000824F2161730020308327000E029039718A
:101C500006DE16DC1ADA1ED82AD62ED432D236D0B8
:101C60003ACE3ECC42CA46C872C676C47AC27EC05C
:101C7000F32740F1139727009387C181BA979843C0
:101C80000DC3B7170080938747A9631FF702B707F3
:101C900000809387870503A7871383A507141D4535
:101CA0000297F250E2525253C2533255A255125685
:101CB00082567247E2475248C248324EA24E124FF5
:101CC000824F216173002030832700140290397104
:101CD00006DE16DC1ADA1ED82AD62ED432D236D038
:101CE0003ACE3ECC42CA46C872C676C47AC27EC0DC
:101CF000F32740F1139727009387C181BA97984340
:101D00000DC3B7170080938747A9631FF702B70772
:101D100000809387870503A7072183A58721414575
:101D20000297F250E2525253C2533255A255125604
:101D300082567247E2475248C248324EA24E124F74
:101D4000824F2161730020308327802102903971F6
:101D500006DE16DC1ADA1ED82AD62ED432D236D0B7
:101D60003ACE3ECC42CA46C872C676C47AC27EC05B
:101D7000F32740F1139727009387C181BA979843BF
:101D80000DC3B7170080938747A9631FF702B707F2
:101D900000809387870503A7872283A507234545EE
:101DA0000297F250E2525253C2533255A255125684
:101DB00082567247E2475248C248324EA24E124FF4
:101DC000824F2161730020308327002302903971F4
:101DD00006DE16DC1ADA1ED82AD62ED432D236D037
:101DE0003ACE3ECC42CA46C872C676C47AC27EC0DB
:101DF000F32740F1139727009387C181BA9798433F
:101E00000DC3B7170080938747A9631FF702B70771
:101E100000809387870503A7072483A58724494566
:101E20000297F250E2525253C2533255A255125603
:101E300082567247E2475248C248324EA24E124F73
:101E4000824F2161730020308327802402903971F2
:101E500006DE16DC1ADA1ED82AD62ED432D236D0B6
:101E60003ACE3ECC42CA46C872C676C47AC27EC05A
:101E7000F32740F1139727009387C181BA979843BE
:101E80000DC3B7170080938747A9631FF702B707F1
:101E900000809387870503A7872583A507264D45DF
:101EA0000297F250E2525253C2533255A255125683
:101EB00082567247E2475248C248324EA24E124FF3
:101EC000824F2161730020308327002602903971F0
:101ED00006DE16DC1ADA1ED82AD62ED432D236D036
:101EE0003ACE3ECC42CA46C872C676C47AC27EC0DA
:101EF000F32740F1139727009387C181BA9798433E
:101F00000DC3B7170080938747A9631FF702B70770
:101F100000809387870503A7072783A58727514557
:101F20000297F250E2525253C2533255A255125602
:101F300082567247E2475248C248324EA24E124F72
:101F4000824F2161730020308327802702903971EE
:101F500006DE16DC1ADA1ED82AD62ED432D236D0B5
:101F60003ACE3ECC42CA46C872C676C47AC27EC059
:101F7000F32740F1139727009387C181BA979843BD
:101F80000DC3B7170080938747A9631FF702B707F0
:101F900000809387870503A7872883A507295545D0
:101FA0000297F250E2525253C2533255A255125682
:101FB00082567247E2475248C248324EA24E124FF2
:101FC000824F2161730020308327002902903971EC
:101FD00006DE16DC1ADA1ED82AD62ED432D236D035
:101FE0003ACE3ECC42CA46C872C676C47AC27EC0D9
:101FF000F32740F1139727009387C181BA9798433D
:102000000DC3B7170080938747A9631FF702B7076F
:1020100000809387870503A7072A83A5872A594548
:102020000297F250E2525253C2533255A255125601
:1020300082567247E2475248C248324EA24E124F71
:10204000824F2161730020308327802A02903971EA
:1020500006DE16DC1ADA1ED82AD62ED432D236D0B4
:102060003ACE3ECC42CA46C872C676C47AC27EC058
:10207000F32740F1139727009387C181BA979843BC
:102080000DC3B7170080938747A9631FF702B707EF
:1020900000809387870503A7872B83A5072C5D45C1
:1020A0000297F250E2525253C2533255A255125681
:1020B00082567247E2475248C248324EA24E124FF1
:1020C000824F2161730020308327002C02903971E8
:1020D00006DE16DC1ADA1ED82AD62ED432D236D034
:1020E0003ACE3ECC42CA46C872C676C47AC27EC0D8
:1020F000F32740F1139727009387C181BA9798433C
:102100000DC3B7170080938747A9631FF702B7076E
:1021100000809387870503A7072D83A5872D614539
:102120000297F250E2525253C2533255A255125600
:1021300082567247E2475248C248324EA24E124F70
:10214000824F2161730020308327802D02903971E6
:1021500006DE16DC1ADA1ED82AD62ED432D236D0B3
:102160003ACE3ECC42CA46C872C676C47AC27EC057
:10217000F32740F1139727009387C181BA979843BB
:102180000DC3B7170080938747A9631FF702B707EE
:1021900000809387870503A7872E83A5072F6545B2
:1021A0000297F250E2525253C2533255A255125680
:1021B00082567247E2475248C248324EA24E124FF0
:1021C000824F2161730020308327002F02903971E4
:1021D00006DE16DC1ADA1ED82AD62ED432D236D033
:1021E0003ACE3ECC42CA46C872C676C47AC27EC0D7
:1021F000F32740F1139727009387C181BA9798433B
:102200000DC3B7170080938747A9631FF702B7076D
:1022100000809387870503A7073083A5873069452A
:102220000297F250E2525253C2533255A2551256FF
:1022300082567247E2475248C248324EA24E124F6F
:10224000824F2161730020308327803002903971E2
:1022500006DE16DC1ADA1ED82AD62ED432D236D0B2
:102260003ACE3ECC42CA46C872C676C47AC27EC056
:10227000F32740F1139727009387C181BA979843BA
:102280000DC3B7170080938747A9631FF702B707ED
:1022900000809387870503A7873183A507326D45A3
:1022A0000297F250E2525253C2533255A25512567F
:1022B00082567247E2475248C248324EA24E124FEF
:1022C000824F2161730020308327003202903971E0
:1022D00006DE16DC1ADA1ED82AD62ED432D236D032
:1022E0003ACE3ECC42CA46C872C676C47AC27EC0D6
:1022F000F32740F1139727009387C181BA9798433A
:102300000DC3B7170080938747A9631FF702B7076C
:1023100000809387870503A7073383A5873371451B
:102320000297F250E2525253C2533255A2551256FE
:1023300082567247E2475248C248324EA24E124F6E
:10234000824F2161730020308327803302903971DE
:1023500006DE16DC1ADA1ED82AD62ED432D236D0B1
:102360003ACE3ECC42CA46C872C676C47AC27EC055
:10237000F32740F1139727009387C181BA979843B9
:102380000DC3B7170080938747A9631FF702B707EC
:1023900000809387870503A7873483A50735754594
:1023A0000297F250E2525253C2533255A25512567E
:1023B00082567247E2475248C248324EA24E124FEE
:1023C000824F2161730020308327003502903971DC
:1023D00006DE16DC1ADA1ED82AD62ED432D236D031
:1023E0003ACE3ECC42CA46C872C676C47AC27EC0D5
:1023F000F32740F1139727009387C181BA97984339
:102400000DC3B7170080938747A9631FF702B7076B
:1024100000809387870503A7073683A5873679450C
:102420000297F250E2525253C2533255A2551256FD
:1024300082567247E2475248C248324EA24E124F6D
:10244000824F2161730020308327803602903971DA
:1024500006DE16DC1ADA1ED82AD62ED432D236D0B0
:102460003ACE3ECC42CA46C872C676C47AC27EC054
:10247000F32740F1139727009387C181BA979843B8
:102480000DC3B7170080938747A9631FF702B707EB
:1024900000809387870503A7873783A507387D4585
:1024A0000297F250E2525253C2533255A25512567D
:1024B00082567247E2475248C248324EA24E124FED
:1024C000824F216173002030832700380290F32768
:1024D000503093F7F703FD17094701456367F7008D
:1024E00013870182BA9703C507008280CDB7AD4735
:1024F0006308F50263CBA7000D4785476305E50038
:102500006515933715003E85828041478147E34C2E
:10251000E5FE7D478547E358A7FE130505F8D5B7C7
:102520008547D5B7011122CC2A842E8526CA4AC8F0
:102530004EC606CEAE84B2893689553FD55701C9FD
:1025400093070008639AF4085937CD572DCDF24010
:102550006244D2444249B2493E85056182802328C3
:102560003439232C243909A8E145B384B4022694D4
:1025700023283409232C24098147D1BF138704FF62
:10258000BD46D157E3E5E6FCE145B384B402B72785
:102590000120938787A626942328F408232A240958
:1025A000E1BFB717012093874776232CF40C232E25
:1025B000240DD9B7B72701209387C7A9232CF4127C
:1025C000232E241355BFE39C09F8B71701209387E6
:1025D000A77A2328F43871B7E39809F8AD47E38563
:1025E000F4FAE3CD97F88D47E38DF4FA9D47E38342
:1025F000F4FCD157A9BF11C99D47638AF50463E86C
:10260000B7009DC58D47638FF5027D5615A8AD4770
:102610006382F504E3EBF5FE938705FF3D47E36630
:10262000F7FE8547B395B7000DCEF3A5453029A039
:10263000A14709C6F3A70730014619A0F3B7073031
:1026400032858280A14719CAF3A74730F5B79307AF
:102650000008D5BF856793870780F5B7F3B7473084
:10266000C5B7F3B54530E9BF054671B7014661B757
:10267000B707008093870745639DA70099477D555D
:1026800063EAC700B707000C8A05BE9590C10145F3
:1026900082807D558280B7070080938707456387D6
:1026A000A70081478A05BE9588418280B707000C44
:1026B000D5BF41111305C01206C6EF009075011178
:1026C000B707008022CC06CE26CA4AC84EC652C4DE
:1026D000938707452A8401476314F50013075003C5
:1026E0007D5563D5E502B689328AAE8413992500FB
:1026F00015C622850946AD3FE145B384B40222994F
:102700002324490126942328340F0145F2406244D2
:10271000D2444249B249224A056182802285054657
:10272000813FE145B384B402B72701202299938702
:10273000276B2324F90026942326340FF9B7B70713
:1027400000809387074501476394A7003707000C73
:10275000B70720009107B205BE95BA9588418280DF
:10276000B7070080938707453707000C6383A700EE
:102770000147B7072000B2059107BE95BA9590C1F1
:102780008280011106CE22CC26CA2E84EFF02FC102
:102790003335A000B304A040A68522854D37B70786
:1027A0000080938707452A866314F4029307400349
:1027B00063E0A70293172500A297984711CBE14742
:1027C000B307F5022AC6A29783A5070F02973246E0
:1027D00022856244F240A685D244056151B7B7070D
:1027E0000080938707453707000C6383A7000147E4
:1027F000B7072000B205BE95BA9590C10145828009
:10280000011122CC06CE2A842EC6EFF04FB9AA853C
:10281000228562443246F2400561D1B7011122CCD3
:1028200026CA4AC84EC652C406CEAA89328A2E8902
:1028300081440144631B0900F240624426854249F9
:10284000D244B249224A0561828009C85286A285D3
:102850004E857137058933158500C98C05041359D8
:102860001900C9BFB707008093870745638AA7008F
:10287000814737072000B205BA95BE95884182800E
:10288000B707000CFDB7411122C406C62A84EFF039
:102890000FB1AA8522852244B2404101E1B741111E
:1028A00006C6C937B2400145410182803707008022
:1028B000130707453708000C6303A70001481357A7
:1028C00056400A0793977500BA970967BA97C29757
:1028D0008C4305473316C70089C64D8E90C301450A
:1028E00082801346F6FF6D8ED5BF011126CA444182
:1028F00006CE22CC4AC84EC652C456C25AC099C847
:10290000F2406244D2444249B249224A924A024BBE
:1029100005618280B707008093870745930A5003BB
:102920006303F500814A37090080832789052A84DB
:10293000130589059C439309C40E130A89058297E0
:10294000130B00408146268681452285853763DF4B
:1029500054010146A6852285213B93972400A29726
:1029600023A4070023A0090023A209008504E1098C
:10297000E39A64FD014681452285953583270A0047
:10298000A2860146DC4FAD45130589058297832752
:102990000A0037260120A286DC4F13062678AD45B3
:1029A00013058905829783270A00AD45130589051C
:1029B000DC53829785475CC0A1B7B7070080938737
:1029C000074501476314F50013075003FD5763D40F
:1029D000E502011106CE22CC2EC62A84EFF02F9CF0
:1029E0003246AA8585462285D135F2406244814728
:1029F0003E85056182803E858280B707008093878F
:102A0000074501476314F50013075003FD5763D4CE
:102A1000E502011106CE22CC2EC62A84EFF02F98B3
:102A20003246AA85814622855135F240624481476B
:102A30003E85056182803E8582800111B707008056
:102A400006CE22CC26CA4AC84EC652C49387074532
:102A500001476314F50013075003FD546358E60063
:102A6000328AAA892E848144014911E8F2406244E5
:102A700026854249D244B249224A05618280630BCD
:102A8000090085465286CA854E850D350589331560
:102A90002501C98C05090580C9BF0111B707008050
:102AA00006CE22CC26CA4AC84EC652C493870745D2
:102AB00001476314F50013075003FD546358E60003
:102AC000328AAA892E848144014911E8F240624485
:102AD00026854249D244B249224A05618280630B6D
:102AE000090081465286CA854E85C933058933154A
:102AF0002501C98C05090580C9BF83A74183411100
:102B000022C406C681451385818182972A84931742
:102B100014007D5563DF0700635D04003705008006
:102B2000130585011374F403EF00D04805043355F1
:102B30008502B240224441018280C1B783A741830C
:102B4000411106C69145138581818297931715001F
:102B500063DC0700635A0500B240370500801305A7
:102B6000050041016F001045B2407D554101828052
:102B7000F1B713858181828021458280411122C471
:102B80002A84484106C6EF00B03FB7870010984737
:102B90009316F70063D706009847C176FD16758F28
:102BA00098C7378700101C47B7060200B725F40006
:102BB000D58F1CC71C40228593850540DC43829736
:102BC00008442244B24041016F00903B011106CEFF
:102BD00022CC26CA2A844D372AC62285593F83A48F
:102BE0004183B24582942A84B145138581818294C0
:102BF0009317F40063CC07006244F240D2443705D7
:102C000000801305450205616F00D03A9317E40078
:102C1000AA8463C507063705008013054502EF0047
:102C200070399317D40063C6070493574400856630
:102C3000938606C093F7F703137774008507758CA6
:102C40009306F03F0507860763FF86023345E502DA
:102C500029803305F50285473394870093F70410E4
:102C60003345850299E793F4F403850486043355CC
:102C70009502F2406244D2440561828037050080AB
:102C80001305C50069BF7D55EDB7797122D426D2F1
:102C90004AD006D64ECE52CCAA842E893784001054
:102CA000E13D2A941C401397F700635707001C402E
:102CB00041777D17F98F1CC01C401397E700634DC7
:102CC00007023705008013054502EF00B02E0D47BF
:102CD0003307E50291463347D7026344E90295473B
:102CE000B307F502B3C7D70263CD27011C403707EE
:102CF0000400D98F1CC021AA370500801305C50028
:102D0000E9B73717012037080080130787E3FD561E
:102D10001348F8FF13063004FD551C47636AF5029B
:102D20005C4763E7A7021C4383284700B307F5020B
:102D3000B3D71703638EB700B387274193D8F74102
:102D4000B3C7F800B387174163D407013E88B28642
:102D50007D160117E313B6FC1C40E38AC6F8E19B1D
:102D60001CC0B707012096069387875DB697984BDE
:102D700010401D8B518F18C018401377F7C018C032
:102D8000D84B144012071377073F558F18C01840CF
:102D9000FD769386F63F758F18C0984F1040856674
:102DA0002A07938606C0758F518F18C0D84FB787F2
:102DB0000010635C0706D84713670710D8C7D847C9
:102DC000137707FCD8C7D84713671700D8C71C402C
:102DD0003707FCFF7D17F98FB71900801CC0300042
:102DE00085451385C9A8EFE0BF8B2249B247130A76
:102DF000490033392A013E99B2476367F90063936A
:102E00002705A2476370FA041C40E3DF07FE1C405D
:102E100041672685D98F1CC0553BB250225492542D
:102E20000259F249624A45618280D4471377F70319
:102E300093F6F6EFD4C7D44793F606FCD4C7D4472D
:102E4000558F69B7300085451385C9A8EFE05F85C8
:102E500065B7B7870010BE9588418280B78700109C
:102E6000BE9590C13285828013874181B7270110BA
:102E70006303A7008147D8430145D98DCCC3828025
:102E800013874181B72701106303A7008147D84307
:102E900093C5F5FF0145F98DCCC3828093874181AD
:102EA0006385A700814788438280B7270110E5BF6B
:102EB000938741816385A7008147C8478280B727F0
:102EC0000110E5BF13874181B72701106303A700F5
:102ED0008147984793C5F5FF0145F98D8CC78280DE
:102EE00013874181B72701106303A70081479847E3
:102EF0000145D98D8CC7828013874181B727011086
:102F00006303A7008147D8470145D98DCCC782808C
:102F100013874181B72701106303A7008147D84772
:102F200093C5F5FF0145F98DCCC782801387418198
:102F3000B72701106303A7008147D8470145B98D22
:102F4000CCC7828013874181B72701106303A70094
:102F50008147D85F0145D98DCCDF985F598E90DFCE
:102F6000828013874181B72701106303A70081473F
:102F7000985F93C5F5FF0145F98D8CDF828013873B
:102F80004181B72701106303A70081471D47636C88
:102F9000C70237170120130787E50A063A96184239
:102FA0000287984F93C5F5FF6D8F98CF98536D8F1B
:102FB00098D398576D8F98D7985BF98D8CDB21A0AB
:102FC000984FD98D8CCF01458280984F4D8F98CFE7
:102FD0009853D98D8CD3C5BF9857D98D8CD7E5B769
:102FE000984F4D8F98CF98534D8F98D398574D8FBA
:102FF00098D7985BD98DD9B713874181B72701102E
:103000006303A70081477D161947636DC700371713
:103010000120130787E70A063A9618420287D84F1D
:10302000D98DCCCF01458280D84F4D8FD8CFD85382
:10303000D98DCCD3C5BFD857D98DCCD7E5B7D84F0C
:103040004D8FD8CFD8534D8FD8D3D8574D8FD8D791
:10305000D85BD98DCCDBF9B7938741816384A70016
:1030600001458280370500801305054582809387DE
:1030700041816398A7102145638605108547254542
:103080006382F51089472945638EF50E8D472D45DE
:10309000638AF50E914731456386F50E95473545B0
:1030A0006382F50E99473945638EF50C9D473D4582
:1030B000638AF50CA14741456386F50CA547454554
:1030C0006382F50CA9474945638EF50AAD474D4526
:1030D000638AF50AB14751456386F50AB5475545F8
:1030E0006382F50AB9475945638EF508BD475D45CA
:1030F000638AF508C14761456386F508C54765459C
:103100006382F508C9476945638EF506CD476D456D
:10311000638AF506D14771456386F506D54775453F
:103120006382F506D9477945638EF504DD477D4511
:10313000638AF504E147130500026385F504E5475A
:10314000130510026380F504E94713052002638B21
:10315000F502ED47130530026386F502F1471305CA
:1031600040026381F502F5476D45638DF500F9472F
:1031700071456389F500FD4701456395F500754587
:10318000828001458280B707008093878742376736
:1031900001106383A700014783470701898BEDFF77
:1031A00082800C456FE06FAF08458280011122CC10
:1031B00026CA4EC652C456C206CE4AC8AA892E8A0C
:1031C000B284C929930A150033B5AA003304B500A7
:1031D00083C7090113890901898B8DEF060AB3E4BE
:1031E000440193F4F40F23869900930700F9230018
:1031F000F9004D219304150033B5A4003304B50044
:1032000083470900898B85EB034509001D81330540
:10321000A04009A841216346B400E39B85FAE3F985
:10322000AAFA7D55F2406244D2444249B249224A48
:10323000924A05618280B929E345B4FEE39285FC98
:10324000E3F0A4FCF9BF5D7137080080A2C486C614
:10325000A6C2CAC04EDE52DC56DA5AD85ED662D456
:1032600066D26AD06ECE1308884201446314050109
:103270003764011015E17D59B64026444A859644CD
:103280000649F259625AD25A425BB25B225C925CA6
:10329000025DF24D61618280484171DDBE893A8BE9
:1032A000368AB28BAE8AB1CE0146228501372A8991
:1032B00061F5814D414C130DFAFFB387BB0183C704
:1032C00007002306F4006316BD0163940900130C84
:1032D0000005230884017D2E130715003335A70050
:1032E000930C0401B304B50083C70C00898BA5E7D8
:1032F00083C70C00E207E18763C90706850DE31E5B
:10330000BAFBE38B09F60546D685228545352A8921
:1033100025F5014A930A0002938BF9FF63944B0150
:10332000930A800623085401B526930C150033B583
:10333000AC00130C0401B304B50083470C00898B67
:103340009DE70347C400B3074B01050A2380E7004C
:10335000E39649FD15B73AC6352EE3CEB4F03247B1
:10336000E39495F8E372A7F839B77D5959BF1D2644
:10337000E3C3B4F0E39395FCE3F1ACFCEDBD7971EC
:10338000B707008052CC06D622D426D24AD04ECEE1
:1033900056CA5AC85EC662C466C26AC0938787426C
:1033A000014A6314F500376A01100DE1FD5BB2506C
:1033B00022545E8592540259F249624AD24A424BE3
:1033C000B24B224C924C024D456182805C41F9DF48
:1033D000B28A528505463A84368BC93BAA8B61F97D
:1033E0001A0413740404014993090002138CFAFFB0
:1033F000E30F59FB63162C01B369340193E989008B
:1034000023083A01412C130D15003335AD00930C00
:103410000A01B304B50083C70C00898B89EB03470D
:10342000CA00B3072B0105092380E700D1B79D240B
:10343000E3CEB4F6E39195FEE37FADFC85BF7971F1
:10344000B70700804ECE06D622D426D24AD052CC20
:1034500056CA5AC85EC662C466C26AC093878742AB
:1034600081496314F500B76901100DE1FD5AB250AE
:103470002254568592540259F249624AD24A424B2A
:10348000B24B224C924C024D456182805C41F9DF87
:10349000328A4E8501463A84B68B093BAA8A61F985
:1034A0001A04137404040149414B130CFAFFE3009E
:1034B00049FDB3872B0183C707002386F9006314F6
:1034C0002C01336B640123886901E922130D150077
:1034D0003335AD00938C0901B304B50083C70C00EC
:1034E000898B89EB83C70C00E207E187E3C007F80B
:1034F000050975BF4522E3CBB4F6E39195FEE37F62
:10350000ADFCADB7B7070080938787426311F50420
:10351000411122C42A8483A7418126C24AC0DC53B8
:1035200006C6B2842E890D66814513854181829736
:1035300085476398F400CA852285EFD01FF611E114
:1035400044C0B240224492440249410182808280B8
:10355000B707008093878742630CF5007D55828012
:103560007D55F2406244D2444249B24905618280AD
:10357000011122CC2A84370500804AC813090503AB
:103580008327090006CE26CA9C434EC613050503B1
:10359000AE898297AA84B737012003254900938713
:1035A00067185CC49305C40000C8CD2A2322A90073
:1035B000B7370120032589009387271A1CCC40CCFC
:1035C00093058401E12A2324A90015453385A90226
:1035D000C16733D5A4027D15E374F5F8B767011010
:1035E00003C787001377F7072384E7001377F50FE6
:1035F00021852380E7001375F50F2382A70003C7F9
:1036000087000145136707082384E700232434015A
:1036100089BF0100FDBF797126D28A85AA84014540
:1036200006D622D44AD04ECE52CC56CA612001CD05
:103630007D542285B250225492540259F249624A72
:10364000D24A456182802C0071202A8475F122497A
:10365000B249024A924A4A86CE865285D685EF0002
:10366000707088C0CCC04A86CE865285D685EF1051
:103670004025B7470F00938707243337F5024A8662
:10368000CE86B385F5023305F502BA95EF00906D4D
:1036900088C445B7011181450A8506CEAD3F635602
:1036A00005007D57FD573AC03EC2F24002459245A3
:1036B00005618280411122C406C62E84912209C967
:1036C000252208C04CC00145B240224441018280FD
:1036D0007D55DDBF411122C406C62E84152209C9BD
:1036E000012A08C04CC00145B240224441018280F9
:1036F0007D55DDBF0000000000000000000000005C
:103700006FE04FCA6FE00FCA6FE0CFC96FE02FCCF8
:103710006FE04FC96FE00FC96FE0CFC86FE02FD3E4
:103720006FE04FC86FE00FC86FE0CFC76FE08FC783
:103730006FE04FC76FE00FC76FE0CFC66FE08FC677
:103740006FE0EFD86FE0AFE06FE06FE86FE02FF071
:103750006FE0EFF76FE0AFFF6FE07F876FE03F8FC5
:103760006FE0FF966FE0BF9E6FE07FA66FE03FAE19
:103770006FE0FFB56FE0BFBD6FE07FC56FE03FCD8D
:10378000411122C406C62A8409E4B2402244410100
:1037900082801C40484082970044FDB723A4050066
:1037A000AA8701E52E858280BA87984775FF8CC766
:1037B000AA85CDBF1C4103A307000283011122CCBF
:1037C0002A84484106CE26CA2EC65D3F1C40B2451B
:1037D0002285DC438297AA8408445D37F240624424
:1037E0002685D244056182801C4103A30700028321
:1037F0001C4103A3470002831C4103A3C7020283A9
:1038000001E503A5C183828001458280732540F1D3
:103810008280B7070080938707006308F502B70727
:103820000080938787016307F5023707008013073D
:10383000C703A1676309E500370700801307870402
:103840006303E50081473E858280B727F4009387B4
:103850000740D5BFB7A74A0493870720EDB7B7073E
:103860000080938707006308F502B70700809387FD
:1038700087016307F502370700801307C703A167B5
:103880006309E50037070080130787046303E50039
:1038900081473E858280B727F40093870740D5BFD4
:1038A000B7A74A0493870720EDB7AA85814601464A
:1038B00001450DA2411122C406C697070000938757
:1038C000271A2A8499C38145512A9387C184884342
:1038D0001C5591C382972285EF10F024411197D790
:1038E000FFFF938727A122C417D4FFFF130484A0EE
:1038F0001D8C26C206C60984BE8411E4B24022444F
:103900009244410182807D1493172400A6979C4322
:103910008297E5B7411197D7FFFF9387279D22C470
:1039200017D4FFFF1304849C1D8C26C24AC006C610
:10393000098481443E896396840297D7FFFF938769
:10394000E79A17D4FFFF1304649A1D8C09848144FD
:103950003E89639F8400B24022449244024941015F
:10396000828093972400CA979C4385048297E1B78D
:1039700093972400CA979C4385048297D9BF3571D9
:103980003ECBB707008093C7F7FF3ECE3EC8C17756
:103990009387872032C536C73AC942CD46CF3ECA43
:1039A000938781842AC42ACC884334012E862C0034
:1039B00086DE36C2A12CA24723800700F6500D6197
:1039C0008280AA8703C7050085078505A38FE7FEC8
:1039D00075FB828097D7FE5F9387C7109C432A8E22
:1039E0009DE317D7FE5F1307271197D7FE5F23AB21
:1039F000E70E17C5FEDF1305E560BA8709C51C4150
:103A000023AAF18EBA87D8437D487D556347E804E1
:103A1000630E0E0203A887086301080493182700A9
:103A2000C29823A0C8000323081005463316E600F9
:103A30003363C3002320681023A0D8088946631786
:103A4000DE0083264810558E2322C81093061700E7
:103A50000A07D4C3BA978CC701458280797152CCCA
:103A600056CA5AC85EC606D622D426D24AD04ECEF0
:103A700062C42A8B2E8A97DAFE5F938AAA06854B48
:103A800003A40A0011C84440832984081389F4FF61
:103A90008A04A294635E0900B250225492540259DF
:103AA000F249624AD24A424BB24B224C4561828073
:103AB000630E0A00639509007D19F114E1BF9317A5
:103AC0002900CE9783A70708E39847FF5840DC40BA
:103AD0007D176318270323222401F9DF032C4400F8
:103AE0006388090083A6091033972B01F98E89EEAC
:103AF0008297584083A70A00E31487F9E30EF4FA8B
:103B000041B723A20400D1BF93162900CE968C4260
:103B100083A64910758F01E75A858297D9BF2E85F4
:103B20008297C1BF01114AC803A9850022CC52C4A3
:103B30005AC006CE26CA4EC656C22E84328B368A4C
:103B400063ED260983D7C50013F7074849C704402A
:103B50008C495848AA8AB389B4408D44B384E4029E
:103B60000947B3C4E402138716004E9763F3E400D9
:103B7000BA8493F70740C9C3A6855685EF00B007FE
:103B80002A890DE5B14723A0FA008357C4007D556B
:103B900093E707042316F400F2406244D2444249FA
:103BA000B249224A924A024B056182800C484E86F5
:103BB000692D8357C40093F7F7B793E707082316D7
:103BC000F4002328240144C84E99B38434412320AF
:103BD000240104C4528963732A01528908404A8629
:103BE000DA85392F1C440145B38727411CC41C408A
:103BF0003E99232024014DB726865685EF00900D6F
:103C00002A8961F10C4856858927ADBF83D7C50045
:103C1000717126D34AD14ECF06D722D552CD56CB7D
:103C20005AC95EC762C566C393F70708AA892E8979
:103C3000B284B1C39C49A1E39305000436C6652F45
:103C40002320A9002328A900B24615E1B14723A0EB
:103C5000F9007D55BA502A549A540A59FA496A4AC9
:103C6000DA4A4A4BBA4B2A4C9A4C4D6182809307F0
:103C70000004232AF90093070002A30CF102930722
:103C8000000302DA230DF10236CE930B500297DACD
:103C9000FFFF938AEA26054C294B268483470400BC
:103CA00099C3639B7709B30C9440638D0C00E6863F
:103CB0002686CA854E85BD35FD576301F51AD25655
:103CC000E69636DA83470400638A0718FD579304A3
:103CD000140002D002D63ED202D4A301010682DC37
:103CE00083C5040015465685A1231384140082570A
:103CF00031E513F7070109C713070002A301E10625
:103D000013F7870009C71307B002A301E10683C6B2
:103D100004001307A002638BE602B2572684814693
:103D200025460347040093051400130707FD637439
:103D3000E6068DC63ED61DA005048DB73305554158
:103D40003315AC00C98F3ED0A28459BF7247930689
:103D50004700184336CE634907023AD603470400AA
:103D60009307E002631FF704034714009307A002C0
:103D7000631BF702F2470904138747009C433ACEBE
:103D800063C107023ED235A83307E04093E727001E
:103D90003AD63ED0E1B7B387670385462E84BA97FB
:103DA00049B7FD57C5B7050402D28146814725466C
:103DB0000347040093051400130707FD6376E60626
:103DC000F1F2834504000D4617D5FFFF1305C51317
:103DD000852111CD97D7FFFF938707131D8D93077B
:103DE0000004B397A700025505045D8D2AD08345D2
:103DF0000400194617D5FFFF13054511930414005D
:103E0000230CB102352125C597C7FEDF9387871F95
:103E100095E70257F2471377071009CF91073ECE77
:103E2000D257D2973EDA95BDB387670385462E8475
:103E3000BA97BDBF9D07E19BA107D5B77808970644
:103E40000000938666CE4A860C104E8597000000CF
:103E5000E7000000FD572A8AE314F5FC8357C900E8
:103E60007D5593F70704E39707DE5255E5B37808CD
:103E700097060000938646CB4A860C104E85012A91
:103E8000D1BF797156CA9C49BA8A984522D426D2A4
:103E90004ECE52CC06D64AD05AC85EC6AA892E84C7
:103EA000B284368A63D3E700BA879CC003473404E0
:103EB00019C385079CC01C4093F7070281C79C402B
:103EC00089079CC00329040013796900631A09005B
:103ED000130B9401FD5B5C449840998F634CF9048B
:103EE0001C408346340493F70702B336D000A5EB99
:103EF00013063404D2854E85829AFD576303F50478
:103F00001C4011469840998B544481446397C700E4
:103F1000B384E64063D3040081441C4418486354CE
:103F2000F700998FBE94014969047D5B639824056D
:103F3000014509A885465A86D2854E85829A631E18
:103F400075017D55B250225492540259F249624A89
:103F5000D24A424BB24B456182800509ADBF33075F
:103F6000D40013060003A301C70403475404938736
:103F70001600A2978906A381E7049DBF8546228685
:103F8000D2854E85829AE30E65FB050945B77971A6
:103F900022D426D24AD04ECE06D652CC56CA5AC8C1
:103FA000B68983C685019307E0063289AA842E84E8
:103FB000138635046380F61E63E2D7069307300646
:103FC0006382F60A63EDD700638A061E93078005B5
:103FD0006386F616930A24042301D40469A8930780
:103FE00040066386F60093079006E395F6FE1C40B4
:103FF000084393F6070893054500C1C21C410CC352
:1040000063D807001307D002B307F040A301E4040C
:1040100097D6FFFF938606F0294765A093073007E0
:104020006382F61A63EFD7009307F006638FF604F6
:1040300093070007E390F6FA9C4193E707029CC1BF
:1040400009A8930750076382F60493078007E39358
:10405000F6F893078007A302F40497D6FFFF938630
:10406000A6ECDDA01C43938A2504938647009C435D
:1040700014C32381F5048547ADA293F607041C41C0
:104080000CC3BDDEC207C187A5BF0C401C4313F89B
:104090000508138547006305080008C39C4339A041
:1040A00093F5050408C3FDD983D707001307F0066D
:1040B000638AE60C97D6FFFF9386C6E52947A301DE
:1040C00004044C400CC463C5050008406D9908C049
:1040D00099E3B28A91CDB28AB3F5E702FD1AB6959B
:1040E00083C505002380BA00B3D5E70263F2E70A6F
:1040F000A147631EF7001C40858B91CB58401C489C
:1041000063C7E70093070003A38FFAFEFD1A330687
:10411000564110C84E87CA867000A2852685953301
:104120007D5A6314450D7D55B25022549254025964
:10413000F249624AD24A424B45618280A382D50449
:1041400097D6FFFF938606DD0C40084313F8050859
:104150001C4111056300080208C313F7150001C7CD
:1041600093E505020CC04147B9FB0C4093F5F5FD02
:104170000CC0B1B713F8050408C3E30008FEC2077A
:10418000C183E1BF97D6FFFF9386C6D8214705BFFD
:10419000AE8799B794411C43CC4913F806081385A0
:1041A00047006306080008C39C438CC301A808C3EA
:1041B00093F606049C43F5DA2390B7002328040005
:1041C000B28A89BF1C43D04181459386470014C3FE
:1041D00083AA07005685A92801C53305554148C063
:1041E0005C401CC8A301040435B714485686CA8530
:1041F00026858299E30945F31C40898B8DE7B247F8
:104200004844E353F5F23E8505B785465686CA8590
:1042100026858299E30965F1050A5C443247998F46
:10422000E345FAFEE9BF014A930A94017D5BF5B7C5
:1042300093F5F50F2A966314C500014582808347E4
:104240000500E38DB7FE0505FDB7B3C7A5008D8B4F
:104250003307C50081E78D4763EEC700AA87637007
:10426000E50A83C6050085078505A38FD7FEE3EA27
:10427000E7FE828093763500AA8791CA83C605003F
:1042800085078505A38FD7FE93F63700FDB7937694
:10429000C7FF138606FE63F0C70683A3050083A24B
:1042A000450083AF850003AFC50083AE050103AEB3
:1042B000450103A3850183A8C5019385450223A079
:1042C000770003A8C5FF23A2570023A4F70123A664
:1042D000E70123A8D70123AAC70123AC670023AEB7
:1042E00017019387470223AE07FF75B790419107E7
:1042F000910523AEC7FEE3EBD7FEE3E4E7F6828049
:1043000063F3A504B386C500637FD5029345F6FF2A
:104310008147FD176393F50082803387F6000348D9
:1043200007003387C7002A9723000701DDB73387CB
:10433000F500834607003307F50085072300D70003
:10434000E317F6FE82808147E5BFCDC583A7C5FF91
:10435000411122C406C626C21384C5FF63D30700D9
:104360003E94AA84E52297C7FE5F9387E7779C4334
:1043700089EF2322040097C7FE5F23A78776224494
:10438000B240268592444101D9A2637EF4001440D4
:104390003307D4006396E7009843DC43369718C090
:1043A0005CC0D1BFBA87D84319C3E37DE4FE944310
:1043B0003386D700631F86001040B29694C33386BD
:1043C000D700E31EC7FA10435843B29694C3D8C32C
:1043D0007DB76375C400B1479CC055B71040B306A4
:1043E000C4006316D70014435843B29614C058C093
:1043F000C0C371B78280011126CA93843500F19839
:1044000006CE22CC4AC84EC6A104B14763F7F404D5
:10441000B14463E6B4042A89152A97C7FE5F9387DF
:10442000A76C98433A8431E497C7FE5F9387076C83
:104430009C4381EB81454A85ED2097C7FE5F23A70A
:10444000A76AA6854A85F128FD5963193507B14742
:104450002320F9004A85E52829A0E3DC04FAB147C6
:104460001CC10145F2406244D2444249B24905614F
:1044700082801C40858F63C00704AD4663F6F6005A
:104480001CC03E9404C001A85C406314870217C797
:10449000FE5F232BF7644A855D281305B40093075C
:1044A000440061993307F54055DF3A94898F1CC069
:1044B00055BF5CC3CDB722874040B5B71304350064
:1044C0007198E30185FCB305A4404A859928E31B54
:1044D00035FBB5BF99E1B28539BF011122CC06CEBB
:1044E00026CA4AC84EC6328419EA85350149F240C7
:1044F00062444A85D2444249B24905618280AE8411
:10450000AA89B9202689E37485FEA2854E85E53502
:104510002A8971DDA68522860D3BA6854E85353517
:10452000F9B7411122C42A842E8523A801AA06C600
:10453000EF00F05FFD576317F500938701AB9C43D5
:1045400091C31CC0B240224441018280828082809B
:1045500083A7C5FF1385C7FF63D50700AA959C41B4
:104560003E958280AE87328836872A8363960620FE
:1045700097D8FFFF938848A063FEC50A416763741C
:10458000E60A1307F00F3337C7000E07B356E600ED
:10459000B69883C60800369793060002998E99CA8A
:1045A000B397D7003357E5003318D600B365F7004B
:1045B0003313D5001355080133F7A502131608016C
:1045C000418293560301B3D5A5024207D98EB307A2
:1045D000B6022E8763FCF600C2961387F5FF63E7E9
:1045E000060163F5F6001387E5FFC2969D8EB3F7CB
:1045F000A602420313530301B3D6A602C20733E354
:104600006700B305D6023685637BB30042931385FA
:10461000F6FF636603016374B3001385E6FF420788
:10462000498F81454DA8B70600014147E360D6F6A2
:104630006147A9BF01E6854633D8C602C166637EDD
:10464000D8089306F00F63F306012147B356E8003C
:10465000B69883C60800BA9613070002158F49E77B
:10466000B38707418545135608019318080193D86D
:1046700008019356030133F7C702B3D7C7024207B5
:10468000D98E3385F8023E8763FCA600C296138755
:10469000F7FF63E7060163F5A6001387E7FFC296FD
:1046A000898EB3F7C602420313530301B3D6C60281
:1046B000C20733E36700B388D8023685637B1301F2
:1046C00042931385F6FF6366030163741301138538
:1046D000E6FF4207498F3A858280B70600014147CD
:1046E000E366D8F661479DB73318E800B3D5D70025
:1046F0003313E500B356D50013550801B397E7000F
:1047000033F7A502B3E8F60093170801C18313D667
:104710000801B3D5A5024207518FB386B7022E8692
:10472000637CD70042971386F5FF636707016375C3
:10473000D7001386E5FF4297B306D74033F7A602AA
:10474000C20893D80801B3D6A6024207B385D702A0
:10475000B3671701368763FCB700C2971387F6FF6C
:1047600063E7070163F5B7001387E6FFC2978D8FF4
:1047700093150601D98DC5BD63E2D514416763FE6B
:10478000E6021308F00F3337D8000E0733D8E600DF
:1047900097C5FFFF9385457EC29503C80500930525
:1047A00000023A98B385054185E10547E3E5F6F255
:1047B0003335C5001347150039BFB7050001414720
:1047C000E3E6B6FC6147D9B733570601B396B600A6
:1047D000D98E93DE060133D70701B378D703B39799
:1047E000B700335805013363F80093970601C1837E
:1047F000135803013316B6003357D703C20833E802
:104800000801338FE7023A8E637CE8013698130E75
:10481000F7FF6367D8006375E801130EE7FF36986A
:104820003308E841B378D8033358D803C208B38EAD
:10483000070393170301C183B3E7F800428763FCC2
:10484000D701B6971307F8FF63E7D70063F5D701E1
:104850001307E8FFB697420EB387D741C16E33679F
:10486000EE001388FEFF3373070193580701337876
:1048700006014182330E03033388080393560E0169
:104880003303C30242939A96B388C80263F30601C6
:10489000F69813D60601B29863E01703E39317D98D
:1048A000C167FD17FD8EC206337EFE003315B500CD
:1048B000F2968145E371D5E27D17A5B381450147A5
:1048C00019BDB2883687AA872E886398061C97C6BA
:1048D000FFFF9386666A63F8C50A4163637E6608D4
:1048E0001303F00F6373C30021473353E6009A9616
:1048F00003CE0600130300023A9E3303C341630C48
:104900000300B3956500335EC501B31866003368D4
:10491000BE00B317650013D608013377C80213959C
:104920000801418193D607013358C8024207D98E46
:104930003308050363F80601C69663E5160163F3C1
:104940000601C696B386064133F7C602C207C18385
:10495000B3D6C602B306D50213150701C98F63F893
:10496000D700C69763E5170163F3D700C697958F05
:1049700033D5670081458280370300014147E366F4
:1049800066F661479DB701E60546B35816034166D2
:1049900063F3C8081306F00F63731601214733D67B
:1049A000E800B29603CE0600130300023A9E3303DA
:1049B000C34163190306B385154113D70801139545
:1049C0000801418113D60701B3F6E502B3D5E5022C
:1049D000C206D18EB305B50263F8B600C69663E58C
:1049E000160163F3B600C696B385B640B3F6E5028A
:1049F000C207C183B3D5E502B305B502139506011D
:104A0000C98F63F8B700C69763E5170163F3B70072
:104A1000C6978D8FB1BF370600014147E3E1C8F863
:104A20006147B5BFB398680033D7C501B3176500B8
:104A3000335EC50113D50801B376A702B3956500AF
:104A4000336EBE0093950801C18113560E01335792
:104A5000A702C206D18E3387E50263F8E600C69648
:104A600063E5160163F3E600C6963386E640B37647
:104A7000A602420E135E0E013356A602C20633860C
:104A8000C502B3E5C60163F8C500C69563E5150127
:104A900063F3C500C695918D0DB7E3EED5EC416784
:104AA00063F5E604930EF00F33B7DE000E0733D341
:104AB000E60097C8FFFF9388284C9A9883CE080099
:104AC000130E0002BA9E330EDE4163170E0263E43A
:104AD000B6006369C500B307C540958D3335F50051
:104AE0003388A5403E85C28579B5B70800014147A6
:104AF000E3EF16FB614765BF3357D601B396C60196
:104B0000D98E13D8060133D7D50133730703B39574
:104B1000C501B357D501CD8F93950601C18193D8B7
:104B200007013316C6013315C50133570703420386
:104B3000B3681301338FE5023A8363FCE801B6984A
:104B40001303F7FF63E7D80063F5E8011303E7FFFA
:104B5000B698B388E84133FF0803B3D80803420F7F
:104B60003388150393950701C181B365BF00C687DC
:104B700063FC0501B6959387F8FF63E7D50063F5FD
:104B800005019387E8FFB6954203416F3363F30055
:104B90009307FFFFB378F300B38505411353030177
:104BA00013580601F18F3387F802B307F302B38875
:104BB000080333030303BE98135807014698637331
:104BC000F8007A93935708013E93C167FD17337835
:104BD000F80042087D8F429763E66500639C65009C
:104BE000637AE5003306C7403337C700369733038F
:104BF000E34032873307E5403335E500B385654050
:104C0000898DB397D5013357C70133E5E700B3D595
:104C1000C50195B33707800041117D17B377A70011
:104C200026C24AC09354F5011359750113D5750175
:104C30006D8F1379F90F1375F50F06C622C4FD8128
:104C40008E070E07B306A9406392B412635AD006CA
:104C500021E163080726FD168DE6BA974A8513976A
:104C600057006359070C05051307F00F6301E5268C
:104C70003707007E93F617007D178583F98FD58F50
:104C800055A81306F00F631CC9001305F00F5DA0B3
:104C90001306F00FE30BC9FE37060004518F6D4673
:104CA0006354D600054755BF13060002B355D7001D
:104CB000B306D6403317D7003337E0004D8F71BFAE
:104CC000B9C633062541631D090089CB7D1619E25B
:104CD000BA9771B79306F00F631BD500BA8799A8EE
:104CE0009306F00FE30CD5FEB7060004D58FED4612
:104CF00063D4C6008547E9BF93060002918EB3D501
:104D0000C700B397D700B337F000CD8FD1B7930664
:104D1000190013F5E60F39E163190902E1D319CB44
:104D2000BA971397570063570700370700FC7D17A2
:104D3000F98F054513F77700630C071813F7F70091
:104D400091466307D718910761A2638E071615DF96
:104D50008144B70700021305F00F9DAA1306F00F58
:104D60006385C616BA9785833685E9B76355D0063D
:104D70001DE94A8561D3FD1681EE998F139757007F
:104D8000E35A07FA370400047D147D8C2A89C5A8EC
:104D90001306F00F1305F00FE30EC9F86D46635EBE
:104DA000D600054735A01306F00F1305F00FE303F7
:104DB000C9F837060004518FD5B713060002B35562
:104DC000D700B306D6403317D7003337E0004D8FF6
:104DD000998F4A8565B7B9CA330625416310090220
:104DE00099CB7D1609E6B307F740AE8441BF930621
:104DF000F00F631CD500BA87AE842DBF9306F00F69
:104E0000E30BD5FEB7060004D58FED4663D4C6008C
:104E10008547D1BF93060002918E33D8C700B39760
:104E2000D700B337F000B367F80075BF130519005A
:104E30001375E50F05ED6314090289E74DFF8147FE
:104E4000814479A0E30807EEB386E7401396560045
:104E5000B307F740E34206FAFDD2B687E1BDE39817
:104E600007EEE30707EEBA87AE8405B53384E74063
:104E70009316540063DC06023304F740AE842285A7
:104E8000D92E6D153314A40063462503330525413F
:104E9000050513070002B357A4003305A7403314D8
:104EA000A40033348000C18F014569B569F881479A
:104EB000014579B7B70700FCFD173305A940E18F1D
:104EC00095BD4A8585BDBA87C9B31305F00F8147E3
:104ED00013975700635B070005051307F00F630F77
:104EE000E502370700FC7D17F98F1307F00F8D835C
:104EF0006316E50081C7B707400081441375F50FBD
:104F0000B2402244A6071317750113D59700FE047B
:104F1000598D458D02499244410182808147F1B704
:104F200001114AC81359750126CA4EC656C29314B8
:104F3000950006CE22CC52C41379F90FAE8AA58013
:104F40009359F501630709069307F00F630FF906FC
:104F50008E04B7070004DD8C130919F8014A13D534
:104F60007A0113949A001375F50F258093DAFA01EC
:104F700035C59307F00F630FF5060E04B70700045D
:104F80005D8C130515F8814713172A005D8F4A952C
:104F90007D17B945B3C659011306150063E5E5064B
:104FA00097C5FFFF938585F90A072E9718432E971B
:104FB000028795C0268545249307B5FF1309A0F8FD
:104FC000B394F4003309A94051BF1309F00F094A03
:104FD000D9D40D4A69B70149054A51B715C0228590
:104FE0009D2C9307B5FF3314F4009307A0F8338585
:104FF000A74051BF1305F00F894759D48D4769B7B2
:105000000145854751B7C1671383F7FF13D70401E3
:1050100093550401B3F4640033746400B3888402CC
:10502000330887023304B702B385950293D408018D
:10503000C295AE9463F304013E94B3F76400C207D3
:10504000B3F86800C69713976700C1803337E00054
:10505000E9832694D98F1A045D8C9317440063D793
:1050600007069357140005885D8C1307F6076351F4
:10507000E0069377740099C79377F40091456383B2
:10508000B70011049317440063D80700B70700F86E
:10509000FD177D8C130706089307E00F0D8063DD75
:1050A000E70601441307F00F85A8CE862684D28731
:1050B0000947E388E7FE0D47638BE7040547E3965E
:1050C000E7FA0144014789A8D686DDB72A8671BF71
:1050D0008547998F6D47E346F7FE1306E609B357F8
:1050E000F4003314C400333480005D8C9377740073
:1050F00099C79377F40011476383E700110493176E
:1051000054000D80E3D007FC0144054731A037046B
:1051100040001307F00F814626041377F70F5E0750
:105120002580598C1395F601418DF2406244D2449A
:105130004249B249224A924A05618280370680007C
:10514000135775019307F6FF1377F70F9305E007E1
:10515000E98F9356F50163F1E5049305D00963F8EF
:10516000E500370500801345F5FF3695828033E56D
:10517000C7009307500963DAE7001307A7F6331552
:10518000E50081CE3305A040828093076009338714
:10519000E7403355E500F5B701458280411106C669
:1051A00022C426C2AA874DC51357F5413344A70030
:1051B000198C9354F501228579289307E009898F8A
:1051C000130760096346F70221476355A70061157D
:1051D0003314A400260493F7F70FDE0725801395F8
:1051E000F4015D8C418DB2402244924441018280A1
:1051F00013079009635DF7001547098F9306B50102
:105200003357E4003314D40033348000598C1547ED
:105210006356A7001307B5FF3314E400370700FCFB
:105220007D1793767400618F91C63D889146630324
:10523000D40011079316570063D90600B70700FC86
:10524000FD177D8F9307F009898F1354370059B7E5
:105250008144014441B7C1676376F5029307F00FBB
:10526000B3B7A7008E07130700021D8FB357F500D1
:1052700017C5FFFF130545D0AA9703C507003305DF
:10528000A740828037070001C147E36EE5FCE14794
:10529000D9BFB7170080938707AF984315EF411127
:1052A00022C426C23704012006C60547B7040120E0
:1052B00098C39384042F9307842E1304842E63EAE7
:1052C0009700B24022449244410182801C40110464
:1052D0008297E31D94FEF5B78280B717008093870D
:1052E000C7AE984315EF411122C426C237040120EE
:1052F00006C60547B704012098C39384042F93077B
:10530000042F1304042F63EA9700B240224492440E
:10531000410182801C4011048297E31D94FEF5B781
:10532000828085BF5DBF411106C6EFE08FAE9387D7
:1053300081EB1387816B638CE7009387018594432E
:1053400036956375E50088C33685828098C3FD561F
:02535000E5BFB7
:10535800C80A00800000000000000000B40A0080B5
:105368000000000000000000C80A008000000000E3
:1053780000000000AC0A00800000000000000000EF
:10538800D00501200000000000000000C80A0080CD
:105398000000000000000000C80A008000000000B3
:1053A80000000000000000000405012000000000CB
:1053B80000000000000000000000000000000000E5
:1053C80000000000000000000000000000000000D5
:1053D80000000000000000000000000000000000C5
:1053E80000000000000000000000000000000000B5
:105778000000000000000000D00E01200000000022
:105788000000000000000000000000000000000011
:105798000000000000000000000000000000000001
:1057A8006805012000000000000000000000000063
:1057B80000000000000000000000000000000000E1
:1057C80000000000000000000000000000000000D1
:1057D80000000000000000000000000000000000C1
:1057E80000000000000000000000000000000000B1
:105DD8000000000000000000280400805C0401208E
:105DE80000000000C004012000000000940E012003
:105DF800BC0A0080940A008001030400FA2A0120EA
:105E08003A2B01203C2B0120702B0120522E01201F
:105E18005C2E0120940A0080123801205E3801208F
:0C5E2800280A0080280A00804011008039
:0400000520010000D6
:00000001FF
